{
  "contractName": "Lottery",
  "abi": [
    {
      "inputs": [],
      "stateMutability": "nonpayable",
      "type": "constructor"
    },
    {
      "inputs": [],
      "name": "manager",
      "outputs": [
        {
          "internalType": "address",
          "name": "",
          "type": "address"
        }
      ],
      "stateMutability": "view",
      "type": "function",
      "constant": true
    },
    {
      "inputs": [
        {
          "internalType": "uint256",
          "name": "",
          "type": "uint256"
        }
      ],
      "name": "participants",
      "outputs": [
        {
          "internalType": "address payable",
          "name": "",
          "type": "address"
        }
      ],
      "stateMutability": "view",
      "type": "function",
      "constant": true
    },
    {
      "inputs": [],
      "name": "winner",
      "outputs": [
        {
          "internalType": "address payable",
          "name": "",
          "type": "address"
        }
      ],
      "stateMutability": "view",
      "type": "function",
      "constant": true
    },
    {
      "stateMutability": "payable",
      "type": "receive",
      "payable": true
    },
    {
      "inputs": [],
      "name": "getBalance",
      "outputs": [
        {
          "internalType": "uint256",
          "name": "",
          "type": "uint256"
        }
      ],
      "stateMutability": "view",
      "type": "function",
      "constant": true
    },
    {
      "inputs": [],
      "name": "random",
      "outputs": [
        {
          "internalType": "uint256",
          "name": "",
          "type": "uint256"
        }
      ],
      "stateMutability": "view",
      "type": "function",
      "constant": true
    },
    {
      "inputs": [],
      "name": "setWinner",
      "outputs": [],
      "stateMutability": "nonpayable",
      "type": "function"
    },
    {
      "inputs": [],
      "name": "allPlayers",
      "outputs": [
        {
          "internalType": "address payable[]",
          "name": "",
          "type": "address[]"
        }
      ],
      "stateMutability": "view",
      "type": "function",
      "constant": true
    }
  ],
  "bytecode": "0x608060405234801561001057600080fd5b50336000806101000a81548173ffffffffffffffffffffffffffffffffffffffff021916908373ffffffffffffffffffffffffffffffffffffffff160217905550610b8c806100606000396000f3fe6080604052600436106100745760003560e01c80635ec01e4d1161004e5780635ec01e4d14610189578063b0ec8094146101b4578063dfbf53ae146101df578063ed05084e1461020a576100f1565b806312065fe0146100f657806335c1d34914610121578063481c6a751461015e576100f1565b366100f157670de0b6b3a7640000341461008d57600080fd5b6002339080600181540180825580915050600190039060005260206000200160009091909190916101000a81548173ffffffffffffffffffffffffffffffffffffffff021916908373ffffffffffffffffffffffffffffffffffffffff1602179055005b600080fd5b34801561010257600080fd5b5061010b610221565b6040516101189190610714565b60405180910390f35b34801561012d57600080fd5b5061014860048036038101906101439190610760565b6102b8565b60405161015591906107ce565b60405180910390f35b34801561016a57600080fd5b506101736102f7565b604051610180919061080a565b60405180910390f35b34801561019557600080fd5b5061019e61031b565b6040516101ab9190610714565b60405180910390f35b3480156101c057600080fd5b506101c9610355565b6040516101d691906108e3565b60405180910390f35b3480156101eb57600080fd5b506101f46103e3565b60405161020191906107ce565b60405180910390f35b34801561021657600080fd5b5061021f610409565b005b60008060009054906101000a900473ffffffffffffffffffffffffffffffffffffffff1673ffffffffffffffffffffffffffffffffffffffff163373ffffffffffffffffffffffffffffffffffffffff16146102b2576040517f08c379a00000000000000000000000000000000000000000000000000000000081526004016102a990610988565b60405180910390fd5b47905090565b600281815481106102c857600080fd5b906000526020600020016000915054906101000a900473ffffffffffffffffffffffffffffffffffffffff1681565b60008054906101000a900473ffffffffffffffffffffffffffffffffffffffff1681565b60004442600280549050604051602001610337939291906109c9565b6040516020818303038152906040528051906020012060001c905090565b606060028054806020026020016040519081016040528092919081815260200182805480156103d957602002820191906000526020600020905b8160009054906101000a900473ffffffffffffffffffffffffffffffffffffffff1673ffffffffffffffffffffffffffffffffffffffff168152602001906001019080831161038f575b5050505050905090565b600160009054906101000a900473ffffffffffffffffffffffffffffffffffffffff1681565b60008054906101000a900473ffffffffffffffffffffffffffffffffffffffff1673ffffffffffffffffffffffffffffffffffffffff163373ffffffffffffffffffffffffffffffffffffffff1614610497576040517f08c379a000000000000000000000000000000000000000000000000000000000815260040161048e90610988565b60405180910390fd5b600360028054905010156104e0576040517f08c379a00000000000000000000000000000000000000000000000000000000081526004016104d790610a78565b60405180910390fd5b60006104ea61031b565b90506000600280549050826104ff9190610ac7565b90506002818154811061051557610514610af8565b5b9060005260206000200160009054906101000a900473ffffffffffffffffffffffffffffffffffffffff16600160006101000a81548173ffffffffffffffffffffffffffffffffffffffff021916908373ffffffffffffffffffffffffffffffffffffffff160217905550600160009054906101000a900473ffffffffffffffffffffffffffffffffffffffff1673ffffffffffffffffffffffffffffffffffffffff166108fc6105c4610221565b9081150290604051600060405180830381858888f193505050501580156105ef573d6000803e3d6000fd5b50600067ffffffffffffffff81111561060b5761060a610b27565b5b6040519080825280602002602001820160405280156106395781602001602082028036833780820191505090505b506002908051906020019061064f929190610654565b505050565b8280548282559060005260206000209081019282156106cd579160200282015b828111156106cc5782518260006101000a81548173ffffffffffffffffffffffffffffffffffffffff021916908373ffffffffffffffffffffffffffffffffffffffff16021790555091602001919060010190610674565b5b5090506106da91906106de565b5090565b5b808211156106f75760008160009055506001016106df565b5090565b6000819050919050565b61070e816106fb565b82525050565b60006020820190506107296000830184610705565b92915050565b600080fd5b61073d816106fb565b811461074857600080fd5b50565b60008135905061075a81610734565b92915050565b6000602082840312156107765761077561072f565b5b60006107848482850161074b565b91505092915050565b600073ffffffffffffffffffffffffffffffffffffffff82169050919050565b60006107b88261078d565b9050919050565b6107c8816107ad565b82525050565b60006020820190506107e360008301846107bf565b92915050565b60006107f48261078d565b9050919050565b610804816107e9565b82525050565b600060208201905061081f60008301846107fb565b92915050565b600081519050919050565b600082825260208201905092915050565b6000819050602082019050919050565b61085a816107ad565b82525050565b600061086c8383610851565b60208301905092915050565b6000602082019050919050565b600061089082610825565b61089a8185610830565b93506108a583610841565b8060005b838110156108d65781516108bd8882610860565b97506108c883610878565b9250506001810190506108a9565b5085935050505092915050565b600060208201905081810360008301526108fd8184610885565b905092915050565b600082825260208201905092915050565b7f596f752073686f756c6420626520746865206f776e6572206f6620746865206360008201527f6f6e747261637400000000000000000000000000000000000000000000000000602082015250565b6000610972602783610905565b915061097d82610916565b604082019050919050565b600060208201905081810360008301526109a181610965565b9050919050565b6000819050919050565b6109c36109be826106fb565b6109a8565b82525050565b60006109d582866109b2565b6020820191506109e582856109b2565b6020820191506109f582846109b2565b602082019150819050949350505050565b7f7061727469636970616e74206973206e6f742067726561746572207468616e2060008201527f3300000000000000000000000000000000000000000000000000000000000000602082015250565b6000610a62602183610905565b9150610a6d82610a06565b604082019050919050565b60006020820190508181036000830152610a9181610a55565b9050919050565b7f4e487b7100000000000000000000000000000000000000000000000000000000600052601260045260246000fd5b6000610ad2826106fb565b9150610add836106fb565b925082610aed57610aec610a98565b5b828206905092915050565b7f4e487b7100000000000000000000000000000000000000000000000000000000600052603260045260246000fd5b7f4e487b7100000000000000000000000000000000000000000000000000000000600052604160045260246000fdfea264697066735822122057b9667ec15e5a574347bd6fa799100f3ecc22fddbfc78112892e9cf56efd0cd64736f6c63430008110033",
  "immutableReferences": {},
  "source": "// SPDX-License-Identifier: MIT\npragma solidity >=0.4.22 <0.9.0;\n\ncontract Lottery {\n  address public manager;\n  address payable public winner;\n    address payable[] public participants;\n\n    constructor(){\n        //give authority to manager\n        //creates the manager\n        manager = msg.sender;\n    }\n\n    //if anyone transact ether he/she will automatically added in participant list\n    receive() external payable{\n        require(msg.value == 1 ether); \n        participants.push(payable(msg.sender));\n    }\n\n    modifier onlyOwner(){\n        require(msg.sender == manager, \"You should be the owner of the contract\");\n        _;\n    }\n\n    function getBalance() public view onlyOwner returns(uint){\n        return address(this).balance;\n    }\n    function random() public view returns(uint){\n        //generates random number\n        //you can encode with one string also\n        return uint(keccak256(abi.encodePacked(block.difficulty, block.timestamp, participants.length)));\n    }\n    function setWinner() public onlyOwner {\n        require(participants.length >= 3, \"participant is not greater than 3\");\n        uint r = random();\n        uint index = r % participants.length;\n        winner = participants[index];\n        winner.transfer(getBalance());\n        // reset the participants list\n        // now the participants will be zero\n        participants = new address payable[](0);\n    }\n\n    function allPlayers() public view returns(address payable[] memory){\n      return participants;\n    }\n}\n",
  "sourcePath": "D:\\Blockchain Development\\Blockchain Project\\lotteryDapp\\contract\\contracts\\Lottery.sol",
  "compiler": {
    "name": "solc",
    "version": "0.8.17+commit.8df45f5f.Emscripten.clang"
  },
  "schemaVersion": "3.4.10",
  "updatedAt": "2022-11-17T07:42:56.743Z",
  "networkType": "ethereum",
  "devdoc": {
    "kind": "dev",
    "methods": {},
    "version": 1
  },
  "userdoc": {
    "kind": "user",
    "methods": {},
    "version": 1
  }
}