{
  "contractName": "Lottery",
  "abi": [
    {
      "inputs": [],
      "stateMutability": "nonpayable",
      "type": "constructor"
    },
    {
      "inputs": [],
      "name": "manager",
      "outputs": [
        {
          "internalType": "address",
          "name": "",
          "type": "address"
        }
      ],
      "stateMutability": "view",
      "type": "function",
      "constant": true
    },
    {
      "inputs": [
        {
          "internalType": "uint256",
          "name": "",
          "type": "uint256"
        }
      ],
      "name": "participants",
      "outputs": [
        {
          "internalType": "address payable",
          "name": "",
          "type": "address"
        }
      ],
      "stateMutability": "view",
      "type": "function",
      "constant": true
    },
    {
      "stateMutability": "payable",
      "type": "receive",
      "payable": true
    },
    {
      "inputs": [],
      "name": "getBalance",
      "outputs": [
        {
          "internalType": "uint256",
          "name": "",
          "type": "uint256"
        }
      ],
      "stateMutability": "view",
      "type": "function",
      "constant": true
    },
    {
      "inputs": [],
      "name": "random",
      "outputs": [
        {
          "internalType": "uint256",
          "name": "",
          "type": "uint256"
        }
      ],
      "stateMutability": "view",
      "type": "function",
      "constant": true
    },
    {
      "inputs": [],
      "name": "setWinner",
      "outputs": [],
      "stateMutability": "nonpayable",
      "type": "function"
    },
    {
      "inputs": [],
      "name": "allPlayers",
      "outputs": [
        {
          "internalType": "address payable[]",
          "name": "",
          "type": "address[]"
        }
      ],
      "stateMutability": "view",
      "type": "function",
      "constant": true
    }
  ],
  "bytecode": "0x608060405234801561001057600080fd5b50336000806101000a81548173ffffffffffffffffffffffffffffffffffffffff021916908373ffffffffffffffffffffffffffffffffffffffff1602179055506109fa806100606000396000f3fe6080604052600436106100595760003560e01c806312065fe0146100db57806335c1d34914610106578063481c6a75146101435780635ec01e4d1461016e578063b0ec809414610199578063ed05084e146101c4576100d6565b366100d657670de0b6b3a7640000341461007257600080fd5b6001339080600181540180825580915050600190039060005260206000200160009091909190916101000a81548173ffffffffffffffffffffffffffffffffffffffff021916908373ffffffffffffffffffffffffffffffffffffffff1602179055005b600080fd5b3480156100e757600080fd5b506100f06101db565b6040516100fd9190610614565b60405180910390f35b34801561011257600080fd5b5061012d60048036038101906101289190610660565b610272565b60405161013a91906106ce565b60405180910390f35b34801561014f57600080fd5b506101586102b1565b604051610165919061070a565b60405180910390f35b34801561017a57600080fd5b506101836102d5565b6040516101909190610614565b60405180910390f35b3480156101a557600080fd5b506101ae61030f565b6040516101bb91906107e3565b60405180910390f35b3480156101d057600080fd5b506101d961039d565b005b60008060009054906101000a900473ffffffffffffffffffffffffffffffffffffffff1673ffffffffffffffffffffffffffffffffffffffff163373ffffffffffffffffffffffffffffffffffffffff161461026c576040517f08c379a000000000000000000000000000000000000000000000000000000000815260040161026390610888565b60405180910390fd5b47905090565b6001818154811061028257600080fd5b906000526020600020016000915054906101000a900473ffffffffffffffffffffffffffffffffffffffff1681565b60008054906101000a900473ffffffffffffffffffffffffffffffffffffffff1681565b600044426001805490506040516020016102f1939291906108c9565b6040516020818303038152906040528051906020012060001c905090565b6060600180548060200260200160405190810160405280929190818152602001828054801561039357602002820191906000526020600020905b8160009054906101000a900473ffffffffffffffffffffffffffffffffffffffff1673ffffffffffffffffffffffffffffffffffffffff1681526020019060010190808311610349575b5050505050905090565b60008054906101000a900473ffffffffffffffffffffffffffffffffffffffff1673ffffffffffffffffffffffffffffffffffffffff163373ffffffffffffffffffffffffffffffffffffffff161461042b576040517f08c379a000000000000000000000000000000000000000000000000000000000815260040161042290610888565b60405180910390fd5b6003600180549050101561043e57600080fd5b60006104486102d5565b90506000806001805490508361045e9190610935565b90506001818154811061047457610473610966565b5b9060005260206000200160009054906101000a900473ffffffffffffffffffffffffffffffffffffffff1691508173ffffffffffffffffffffffffffffffffffffffff166108fc6104c36101db565b9081150290604051600060405180830381858888f193505050501580156104ee573d6000803e3d6000fd5b50600067ffffffffffffffff81111561050a57610509610995565b5b6040519080825280602002602001820160405280156105385781602001602082028036833780820191505090505b506001908051906020019061054e929190610554565b50505050565b8280548282559060005260206000209081019282156105cd579160200282015b828111156105cc5782518260006101000a81548173ffffffffffffffffffffffffffffffffffffffff021916908373ffffffffffffffffffffffffffffffffffffffff16021790555091602001919060010190610574565b5b5090506105da91906105de565b5090565b5b808211156105f75760008160009055506001016105df565b5090565b6000819050919050565b61060e816105fb565b82525050565b60006020820190506106296000830184610605565b92915050565b600080fd5b61063d816105fb565b811461064857600080fd5b50565b60008135905061065a81610634565b92915050565b6000602082840312156106765761067561062f565b5b60006106848482850161064b565b91505092915050565b600073ffffffffffffffffffffffffffffffffffffffff82169050919050565b60006106b88261068d565b9050919050565b6106c8816106ad565b82525050565b60006020820190506106e360008301846106bf565b92915050565b60006106f48261068d565b9050919050565b610704816106e9565b82525050565b600060208201905061071f60008301846106fb565b92915050565b600081519050919050565b600082825260208201905092915050565b6000819050602082019050919050565b61075a816106ad565b82525050565b600061076c8383610751565b60208301905092915050565b6000602082019050919050565b600061079082610725565b61079a8185610730565b93506107a583610741565b8060005b838110156107d65781516107bd8882610760565b97506107c883610778565b9250506001810190506107a9565b5085935050505092915050565b600060208201905081810360008301526107fd8184610785565b905092915050565b600082825260208201905092915050565b7f596f752073686f756c6420626520746865206f776e6572206f6620746865206360008201527f6f6e747261637400000000000000000000000000000000000000000000000000602082015250565b6000610872602783610805565b915061087d82610816565b604082019050919050565b600060208201905081810360008301526108a181610865565b9050919050565b6000819050919050565b6108c36108be826105fb565b6108a8565b82525050565b60006108d582866108b2565b6020820191506108e582856108b2565b6020820191506108f582846108b2565b602082019150819050949350505050565b7f4e487b7100000000000000000000000000000000000000000000000000000000600052601260045260246000fd5b6000610940826105fb565b915061094b836105fb565b92508261095b5761095a610906565b5b828206905092915050565b7f4e487b7100000000000000000000000000000000000000000000000000000000600052603260045260246000fd5b7f4e487b7100000000000000000000000000000000000000000000000000000000600052604160045260246000fdfea264697066735822122043ff0c17c1ee7f0b5deb7202a83b45f25e7e7bbdb92aa46311928e5f25de7bf264736f6c63430008110033",
  "immutableReferences": {},
  "source": "// SPDX-License-Identifier: MIT\npragma solidity >=0.4.22 <0.9.0;\n\ncontract Lottery {\n  address public manager;\n    address payable[] public participants;\n\n    constructor(){\n        //give authority to managerf\n        //creates the manager\n        manager = msg.sender;\n    }\n\n    //if anyone transact ether he/she will automatically added in participant list\n    receive() external payable{\n        require(msg.value == 1 ether); \n        participants.push(payable(msg.sender));\n    }\n\n    modifier onlyOwner(){\n        require(msg.sender == manager, \"You should be the owner of the contract\");\n        _;\n    }\n\n    function getBalance() public view onlyOwner returns(uint){\n        return address(this).balance;\n    }\n    function random() public view returns(uint){\n        //generates random number\n        //you can encode with one string also\n        return uint(keccak256(abi.encodePacked(block.difficulty, block.timestamp, participants.length)));\n    }\n    function setWinner() public onlyOwner {\n        require(participants.length >= 3);\n        uint r = random();\n        address payable winner;\n        uint index = r % participants.length;\n        winner = participants[index];\n        winner.transfer(getBalance());\n        // reset the participants list\n        // now the participants will be zero\n        participants = new address payable[](0);\n    }\n\n    function allPlayers() public view returns(address payable[] memory){\n      return participants;\n    }\n}\n",
  "sourcePath": "D:\\Blockchain Development\\Blockchain Project\\lotteryDapp\\contract\\contracts\\Lottery.sol",
  "compiler": {
    "name": "solc",
    "version": "0.8.17+commit.8df45f5f.Emscripten.clang"
  },
  "schemaVersion": "3.4.10",
  "updatedAt": "2022-11-15T16:50:56.941Z",
  "networkType": "ethereum",
  "devdoc": {
    "kind": "dev",
    "methods": {},
    "version": 1
  },
  "userdoc": {
    "kind": "user",
    "methods": {},
    "version": 1
  }
}